{
  "_format": "hh-sol-artifact-1",
  "contractName": "Dappzon",
  "sourceName": "contracts/Dappzon.sol",
  "abi": [
    {
      "inputs": [],
      "stateMutability": "nonpayable",
      "type": "constructor"
    },
    {
      "anonymous": false,
      "inputs": [
        {
          "indexed": false,
          "internalType": "uint256",
          "name": "id",
          "type": "uint256"
        },
        {
          "indexed": false,
          "internalType": "string",
          "name": "name",
          "type": "string"
        },
        {
          "indexed": false,
          "internalType": "uint256",
          "name": "cost",
          "type": "uint256"
        },
        {
          "indexed": false,
          "internalType": "uint256",
          "name": "quantity",
          "type": "uint256"
        },
        {
          "indexed": false,
          "internalType": "string",
          "name": "imageUrl",
          "type": "string"
        }
      ],
      "name": "ItemAdded",
      "type": "event"
    },
    {
      "anonymous": false,
      "inputs": [
        {
          "indexed": false,
          "internalType": "uint256",
          "name": "id",
          "type": "uint256"
        },
        {
          "indexed": false,
          "internalType": "address",
          "name": "buyer",
          "type": "address"
        },
        {
          "indexed": false,
          "internalType": "uint256",
          "name": "quantityRemaining",
          "type": "uint256"
        }
      ],
      "name": "ItemPurchased",
      "type": "event"
    },
    {
      "inputs": [
        {
          "internalType": "string",
          "name": "_name",
          "type": "string"
        },
        {
          "internalType": "string",
          "name": "_imageUrl",
          "type": "string"
        },
        {
          "internalType": "uint256",
          "name": "_cost",
          "type": "uint256"
        },
        {
          "internalType": "uint256",
          "name": "_quantity",
          "type": "uint256"
        }
      ],
      "name": "addItem",
      "outputs": [],
      "stateMutability": "nonpayable",
      "type": "function"
    },
    {
      "inputs": [],
      "name": "admin",
      "outputs": [
        {
          "internalType": "address",
          "name": "",
          "type": "address"
        }
      ],
      "stateMutability": "view",
      "type": "function"
    },
    {
      "inputs": [
        {
          "internalType": "uint256",
          "name": "_id",
          "type": "uint256"
        }
      ],
      "name": "getItem",
      "outputs": [
        {
          "components": [
            {
              "internalType": "uint256",
              "name": "id",
              "type": "uint256"
            },
            {
              "internalType": "string",
              "name": "name",
              "type": "string"
            },
            {
              "internalType": "string",
              "name": "imageUrl",
              "type": "string"
            },
            {
              "internalType": "uint256",
              "name": "cost",
              "type": "uint256"
            },
            {
              "internalType": "address",
              "name": "owner",
              "type": "address"
            },
            {
              "internalType": "uint256",
              "name": "quantity",
              "type": "uint256"
            }
          ],
          "internalType": "struct Dappzon.Item",
          "name": "",
          "type": "tuple"
        }
      ],
      "stateMutability": "view",
      "type": "function"
    },
    {
      "inputs": [],
      "name": "itemCount",
      "outputs": [
        {
          "internalType": "uint256",
          "name": "",
          "type": "uint256"
        }
      ],
      "stateMutability": "view",
      "type": "function"
    },
    {
      "inputs": [
        {
          "internalType": "uint256",
          "name": "",
          "type": "uint256"
        }
      ],
      "name": "items",
      "outputs": [
        {
          "internalType": "uint256",
          "name": "id",
          "type": "uint256"
        },
        {
          "internalType": "string",
          "name": "name",
          "type": "string"
        },
        {
          "internalType": "string",
          "name": "imageUrl",
          "type": "string"
        },
        {
          "internalType": "uint256",
          "name": "cost",
          "type": "uint256"
        },
        {
          "internalType": "address",
          "name": "owner",
          "type": "address"
        },
        {
          "internalType": "uint256",
          "name": "quantity",
          "type": "uint256"
        }
      ],
      "stateMutability": "view",
      "type": "function"
    },
    {
      "inputs": [
        {
          "internalType": "uint256",
          "name": "_id",
          "type": "uint256"
        }
      ],
      "name": "purchaseItem",
      "outputs": [],
      "stateMutability": "payable",
      "type": "function"
    }
  ],
  "bytecode": "0x608060405234801561001057600080fd5b5033600260006101000a81548173ffffffffffffffffffffffffffffffffffffffff021916908373ffffffffffffffffffffffffffffffffffffffff160217905550611703806100616000396000f3fe6080604052600436106100555760003560e01c80633129e7731461005a5780636bfb0d0114610097578063bfb231d2146100c2578063d38ea5bf14610104578063dc8cbd2c14610120578063f851a44014610149575b600080fd5b34801561006657600080fd5b50610081600480360381019061007c9190610ac9565b610174565b60405161008e9190610c66565b60405180910390f35b3480156100a357600080fd5b506100ac610338565b6040516100b99190610c97565b60405180910390f35b3480156100ce57600080fd5b506100e960048036038101906100e49190610ac9565b61033e565b6040516100fb96959493929190610d0b565b60405180910390f35b61011e60048036038101906101199190610ac9565b6104aa565b005b34801561012c57600080fd5b5061014760048036038101906101429190610eaf565b6107aa565b005b34801561015557600080fd5b5061015e610a0d565b60405161016b9190610f4e565b60405180910390f35b61017c610a33565b6000808381526020019081526020016000206040518060c0016040529081600082015481526020016001820180546101b390610f98565b80601f01602080910402602001604051908101604052809291908181526020018280546101df90610f98565b801561022c5780601f106102015761010080835404028352916020019161022c565b820191906000526020600020905b81548152906001019060200180831161020f57829003601f168201915b5050505050815260200160028201805461024590610f98565b80601f016020809104026020016040519081016040528092919081815260200182805461027190610f98565b80156102be5780601f10610293576101008083540402835291602001916102be565b820191906000526020600020905b8154815290600101906020018083116102a157829003601f168201915b50505050508152602001600382015481526020016004820160009054906101000a900473ffffffffffffffffffffffffffffffffffffffff1673ffffffffffffffffffffffffffffffffffffffff1673ffffffffffffffffffffffffffffffffffffffff1681526020016005820154815250509050919050565b60015481565b600060205280600052604060002060009150905080600001549080600101805461036790610f98565b80601f016020809104026020016040519081016040528092919081815260200182805461039390610f98565b80156103e05780601f106103b5576101008083540402835291602001916103e0565b820191906000526020600020905b8154815290600101906020018083116103c357829003601f168201915b5050505050908060020180546103f590610f98565b80601f016020809104026020016040519081016040528092919081815260200182805461042190610f98565b801561046e5780601f106104435761010080835404028352916020019161046e565b820191906000526020600020905b81548152906001019060200180831161045157829003601f168201915b5050505050908060030154908060040160009054906101000a900473ffffffffffffffffffffffffffffffffffffffff16908060050154905086565b600260149054906101000a900460ff16156104fa576040517f08c379a00000000000000000000000000000000000000000000000000000000081526004016104f190611015565b60405180910390fd5b6001600260146101000a81548160ff02191690831515021790555060008060008381526020019081526020016000209050600081600001541180156105455750600154816000015411155b610584576040517f08c379a000000000000000000000000000000000000000000000000000000000815260040161057b90611081565b60405180910390fd5b80600301543410156105cb576040517f08c379a00000000000000000000000000000000000000000000000000000000081526004016105c2906110ed565b60405180910390fd5b6000816005015411610612576040517f08c379a000000000000000000000000000000000000000000000000000000000815260040161060990611159565b60405180910390fd5b806005016000815480929190610627906111a8565b9190505550600081600501540361067c57338160040160006101000a81548173ffffffffffffffffffffffffffffffffffffffff021916908373ffffffffffffffffffffffffffffffffffffffff1602179055505b80600301543411156106df573373ffffffffffffffffffffffffffffffffffffffff166108fc8260030154346106b291906111d1565b9081150290604051600060405180830381858888f193505050501580156106dd573d6000803e3d6000fd5b505b600260009054906101000a900473ffffffffffffffffffffffffffffffffffffffff1673ffffffffffffffffffffffffffffffffffffffff166108fc82600301549081150290604051600060405180830381858888f1935050505015801561074b573d6000803e3d6000fd5b507f78a0660bbda86d17037943644187f6f1f73f2f20a3240bf4cf4a56c2a96bcf848233836005015460405161078393929190611205565b60405180910390a1506000600260146101000a81548160ff02191690831515021790555050565b600260009054906101000a900473ffffffffffffffffffffffffffffffffffffffff1673ffffffffffffffffffffffffffffffffffffffff163373ffffffffffffffffffffffffffffffffffffffff161461083a576040517f08c379a0000000000000000000000000000000000000000000000000000000008152600401610831906112ae565b60405180910390fd5b6000821161087d576040517f08c379a00000000000000000000000000000000000000000000000000000000081526004016108749061131a565b60405180910390fd5b600081116108c0576040517f08c379a00000000000000000000000000000000000000000000000000000000081526004016108b790611386565b60405180910390fd5b600160008154809291906108d3906113a6565b91905055506040518060c001604052806001548152602001858152602001848152602001838152602001600073ffffffffffffffffffffffffffffffffffffffff168152602001828152506000806001548152602001908152602001600020600082015181600001556020820151816001019081610951919061159a565b506040820151816002019081610967919061159a565b506060820151816003015560808201518160040160006101000a81548173ffffffffffffffffffffffffffffffffffffffff021916908373ffffffffffffffffffffffffffffffffffffffff16021790555060a082015181600501559050507fb154f373fdc6b090d37b3b5400a2401c04f228519118fc5df9fa421bce8cffa4600154858484876040516109ff95949392919061166c565b60405180910390a150505050565b600260009054906101000a900473ffffffffffffffffffffffffffffffffffffffff1681565b6040518060c0016040528060008152602001606081526020016060815260200160008152602001600073ffffffffffffffffffffffffffffffffffffffff168152602001600081525090565b6000604051905090565b600080fd5b600080fd5b6000819050919050565b610aa681610a93565b8114610ab157600080fd5b50565b600081359050610ac381610a9d565b92915050565b600060208284031215610adf57610ade610a89565b5b6000610aed84828501610ab4565b91505092915050565b610aff81610a93565b82525050565b600081519050919050565b600082825260208201905092915050565b60005b83811015610b3f578082015181840152602081019050610b24565b60008484015250505050565b6000601f19601f8301169050919050565b6000610b6782610b05565b610b718185610b10565b9350610b81818560208601610b21565b610b8a81610b4b565b840191505092915050565b600073ffffffffffffffffffffffffffffffffffffffff82169050919050565b6000610bc082610b95565b9050919050565b610bd081610bb5565b82525050565b600060c083016000830151610bee6000860182610af6565b5060208301518482036020860152610c068282610b5c565b91505060408301518482036040860152610c208282610b5c565b9150506060830151610c356060860182610af6565b506080830151610c486080860182610bc7565b5060a0830151610c5b60a0860182610af6565b508091505092915050565b60006020820190508181036000830152610c808184610bd6565b905092915050565b610c9181610a93565b82525050565b6000602082019050610cac6000830184610c88565b92915050565b600082825260208201905092915050565b6000610cce82610b05565b610cd88185610cb2565b9350610ce8818560208601610b21565b610cf181610b4b565b840191505092915050565b610d0581610bb5565b82525050565b600060c082019050610d206000830189610c88565b8181036020830152610d328188610cc3565b90508181036040830152610d468187610cc3565b9050610d556060830186610c88565b610d626080830185610cfc565b610d6f60a0830184610c88565b979650505050505050565b600080fd5b600080fd5b7f4e487b7100000000000000000000000000000000000000000000000000000000600052604160045260246000fd5b610dbc82610b4b565b810181811067ffffffffffffffff82111715610ddb57610dda610d84565b5b80604052505050565b6000610dee610a7f565b9050610dfa8282610db3565b919050565b600067ffffffffffffffff821115610e1a57610e19610d84565b5b610e2382610b4b565b9050602081019050919050565b82818337600083830152505050565b6000610e52610e4d84610dff565b610de4565b905082815260208101848484011115610e6e57610e6d610d7f565b5b610e79848285610e30565b509392505050565b600082601f830112610e9657610e95610d7a565b5b8135610ea6848260208601610e3f565b91505092915050565b60008060008060808587031215610ec957610ec8610a89565b5b600085013567ffffffffffffffff811115610ee757610ee6610a8e565b5b610ef387828801610e81565b945050602085013567ffffffffffffffff811115610f1457610f13610a8e565b5b610f2087828801610e81565b9350506040610f3187828801610ab4565b9250506060610f4287828801610ab4565b91505092959194509250565b6000602082019050610f636000830184610cfc565b92915050565b7f4e487b7100000000000000000000000000000000000000000000000000000000600052602260045260246000fd5b60006002820490506001821680610fb057607f821691505b602082108103610fc357610fc2610f69565b5b50919050565b7f5265656e7472616e637920646574656374656400000000000000000000000000600082015250565b6000610fff601383610cb2565b915061100a82610fc9565b602082019050919050565b6000602082019050818103600083015261102e81610ff2565b9050919050565b7f4974656d20646f6573206e6f7420657869737400000000000000000000000000600082015250565b600061106b601383610cb2565b915061107682611035565b602082019050919050565b6000602082019050818103600083015261109a8161105e565b9050919050565b7f496e636f727265637420616d6f756e742073656e740000000000000000000000600082015250565b60006110d7601583610cb2565b91506110e2826110a1565b602082019050919050565b60006020820190508181036000830152611106816110ca565b9050919050565b7f4974656d206f7574206f662073746f636b000000000000000000000000000000600082015250565b6000611143601183610cb2565b915061114e8261110d565b602082019050919050565b6000602082019050818103600083015261117281611136565b9050919050565b7f4e487b7100000000000000000000000000000000000000000000000000000000600052601160045260246000fd5b60006111b382610a93565b9150600082036111c6576111c5611179565b5b600182039050919050565b60006111dc82610a93565b91506111e783610a93565b92508282039050818111156111ff576111fe611179565b5b92915050565b600060608201905061121a6000830186610c88565b6112276020830185610cfc565b6112346040830184610c88565b949350505050565b7f4f6e6c792061646d696e2063616e20706572666f726d2074686973206163746960008201527f6f6e000000000000000000000000000000000000000000000000000000000000602082015250565b6000611298602283610cb2565b91506112a38261123c565b604082019050919050565b600060208201905081810360008301526112c78161128b565b9050919050565b7f436f7374206d7573742062652067726561746572207468616e20300000000000600082015250565b6000611304601b83610cb2565b915061130f826112ce565b602082019050919050565b60006020820190508181036000830152611333816112f7565b9050919050565b7f5175616e74697479206d7573742062652067726561746572207468616e203000600082015250565b6000611370601f83610cb2565b915061137b8261133a565b602082019050919050565b6000602082019050818103600083015261139f81611363565b9050919050565b60006113b182610a93565b91507fffffffffffffffffffffffffffffffffffffffffffffffffffffffffffffffff82036113e3576113e2611179565b5b600182019050919050565b60008190508160005260206000209050919050565b60006020601f8301049050919050565b600082821b905092915050565b6000600883026114507fffffffffffffffffffffffffffffffffffffffffffffffffffffffffffffffff82611413565b61145a8683611413565b95508019841693508086168417925050509392505050565b6000819050919050565b600061149761149261148d84610a93565b611472565b610a93565b9050919050565b6000819050919050565b6114b18361147c565b6114c56114bd8261149e565b848454611420565b825550505050565b600090565b6114da6114cd565b6114e58184846114a8565b505050565b5b81811015611509576114fe6000826114d2565b6001810190506114eb565b5050565b601f82111561154e5761151f816113ee565b61152884611403565b81016020851015611537578190505b61154b61154385611403565b8301826114ea565b50505b505050565b600082821c905092915050565b600061157160001984600802611553565b1980831691505092915050565b600061158a8383611560565b9150826002028217905092915050565b6115a382610b05565b67ffffffffffffffff8111156115bc576115bb610d84565b5b6115c68254610f98565b6115d182828561150d565b600060209050601f83116001811461160457600084156115f2578287015190505b6115fc858261157e565b865550611664565b601f198416611612866113ee565b60005b8281101561163a57848901518255600182019150602085019450602081019050611615565b868310156116575784890151611653601f891682611560565b8355505b6001600288020188555050505b505050505050565b600060a0820190506116816000830188610c88565b81810360208301526116938187610cc3565b90506116a26040830186610c88565b6116af6060830185610c88565b81810360808301526116c18184610cc3565b9050969550505050505056fea2646970667358221220891c481cdccfd39a47eeb173bafad16cb5650118e80230a53ae7e783d73f78bc64736f6c63430008140033",
  "linkReferences": {},
  "deployedLinkReferences": {}
}