{
  "_format": "hh-sol-artifact-1",
  "contractName": "Dappzon",
  "sourceName": "contracts/Dappzon.sol",
  "abi": [
    {
      "inputs": [],
      "stateMutability": "nonpayable",
      "type": "constructor"
    },
    {
      "anonymous": false,
      "inputs": [
        {
          "indexed": false,
          "internalType": "uint256",
          "name": "id",
          "type": "uint256"
        },
        {
          "indexed": false,
          "internalType": "string",
          "name": "name",
          "type": "string"
        },
        {
          "indexed": false,
          "internalType": "uint256",
          "name": "cost",
          "type": "uint256"
        },
        {
          "indexed": false,
          "internalType": "uint256",
          "name": "quantity",
          "type": "uint256"
        },
        {
          "indexed": false,
          "internalType": "string",
          "name": "imageUrl",
          "type": "string"
        }
      ],
      "name": "ItemAdded",
      "type": "event"
    },
    {
      "anonymous": false,
      "inputs": [
        {
          "indexed": false,
          "internalType": "uint256",
          "name": "id",
          "type": "uint256"
        },
        {
          "indexed": false,
          "internalType": "address",
          "name": "buyer",
          "type": "address"
        },
        {
          "indexed": false,
          "internalType": "uint256",
          "name": "quantityRemaining",
          "type": "uint256"
        }
      ],
      "name": "ItemPurchased",
      "type": "event"
    },
    {
      "inputs": [
        {
          "internalType": "string",
          "name": "_name",
          "type": "string"
        },
        {
          "internalType": "string",
          "name": "_imageUrl",
          "type": "string"
        },
        {
          "internalType": "uint256",
          "name": "_cost",
          "type": "uint256"
        },
        {
          "internalType": "uint256",
          "name": "_quantity",
          "type": "uint256"
        }
      ],
      "name": "addItem",
      "outputs": [],
      "stateMutability": "nonpayable",
      "type": "function"
    },
    {
      "inputs": [],
      "name": "admin",
      "outputs": [
        {
          "internalType": "address",
          "name": "",
          "type": "address"
        }
      ],
      "stateMutability": "view",
      "type": "function"
    },
    {
      "inputs": [],
      "name": "getAllItems",
      "outputs": [
        {
          "components": [
            {
              "internalType": "uint256",
              "name": "id",
              "type": "uint256"
            },
            {
              "internalType": "string",
              "name": "name",
              "type": "string"
            },
            {
              "internalType": "string",
              "name": "imageUrl",
              "type": "string"
            },
            {
              "internalType": "uint256",
              "name": "cost",
              "type": "uint256"
            },
            {
              "internalType": "address",
              "name": "owner",
              "type": "address"
            },
            {
              "internalType": "uint256",
              "name": "quantity",
              "type": "uint256"
            }
          ],
          "internalType": "struct Dappzon.Item[]",
          "name": "",
          "type": "tuple[]"
        }
      ],
      "stateMutability": "view",
      "type": "function"
    },
    {
      "inputs": [
        {
          "internalType": "uint256",
          "name": "_id",
          "type": "uint256"
        }
      ],
      "name": "getItem",
      "outputs": [
        {
          "components": [
            {
              "internalType": "uint256",
              "name": "id",
              "type": "uint256"
            },
            {
              "internalType": "string",
              "name": "name",
              "type": "string"
            },
            {
              "internalType": "string",
              "name": "imageUrl",
              "type": "string"
            },
            {
              "internalType": "uint256",
              "name": "cost",
              "type": "uint256"
            },
            {
              "internalType": "address",
              "name": "owner",
              "type": "address"
            },
            {
              "internalType": "uint256",
              "name": "quantity",
              "type": "uint256"
            }
          ],
          "internalType": "struct Dappzon.Item",
          "name": "",
          "type": "tuple"
        }
      ],
      "stateMutability": "view",
      "type": "function"
    },
    {
      "inputs": [],
      "name": "itemCount",
      "outputs": [
        {
          "internalType": "uint256",
          "name": "",
          "type": "uint256"
        }
      ],
      "stateMutability": "view",
      "type": "function"
    },
    {
      "inputs": [
        {
          "internalType": "uint256",
          "name": "",
          "type": "uint256"
        }
      ],
      "name": "items",
      "outputs": [
        {
          "internalType": "uint256",
          "name": "id",
          "type": "uint256"
        },
        {
          "internalType": "string",
          "name": "name",
          "type": "string"
        },
        {
          "internalType": "string",
          "name": "imageUrl",
          "type": "string"
        },
        {
          "internalType": "uint256",
          "name": "cost",
          "type": "uint256"
        },
        {
          "internalType": "address",
          "name": "owner",
          "type": "address"
        },
        {
          "internalType": "uint256",
          "name": "quantity",
          "type": "uint256"
        }
      ],
      "stateMutability": "view",
      "type": "function"
    },
    {
      "inputs": [
        {
          "internalType": "uint256",
          "name": "_id",
          "type": "uint256"
        }
      ],
      "name": "purchaseItem",
      "outputs": [],
      "stateMutability": "payable",
      "type": "function"
    }
  ],
  "bytecode": "0x608060405234801561001057600080fd5b5033600260006101000a81548173ffffffffffffffffffffffffffffffffffffffff021916908373ffffffffffffffffffffffffffffffffffffffff160217905550611b83806100616000396000f3fe6080604052600436106100705760003560e01c8063bfb231d21161004e578063bfb231d214610108578063d38ea5bf1461014a578063dc8cbd2c14610166578063f851a4401461018f57610070565b80633129e773146100755780634ba1d6aa146100b25780636bfb0d01146100dd575b600080fd5b34801561008157600080fd5b5061009c60048036038101906100979190610d72565b6101ba565b6040516100a99190610f0f565b60405180910390f35b3480156100be57600080fd5b506100c761037e565b6040516100d49190611083565b60405180910390f35b3480156100e957600080fd5b506100f26105e1565b6040516100ff91906110b4565b60405180910390f35b34801561011457600080fd5b5061012f600480360381019061012a9190610d72565b6105e7565b60405161014196959493929190611128565b60405180910390f35b610164600480360381019061015f9190610d72565b610753565b005b34801561017257600080fd5b5061018d600480360381019061018891906112cc565b610a53565b005b34801561019b57600080fd5b506101a4610cb6565b6040516101b1919061136b565b60405180910390f35b6101c2610cdc565b6000808381526020019081526020016000206040518060c0016040529081600082015481526020016001820180546101f9906113b5565b80601f0160208091040260200160405190810160405280929190818152602001828054610225906113b5565b80156102725780601f1061024757610100808354040283529160200191610272565b820191906000526020600020905b81548152906001019060200180831161025557829003601f168201915b5050505050815260200160028201805461028b906113b5565b80601f01602080910402602001604051908101604052809291908181526020018280546102b7906113b5565b80156103045780601f106102d957610100808354040283529160200191610304565b820191906000526020600020905b8154815290600101906020018083116102e757829003601f168201915b50505050508152602001600382015481526020016004820160009054906101000a900473ffffffffffffffffffffffffffffffffffffffff1673ffffffffffffffffffffffffffffffffffffffff1673ffffffffffffffffffffffffffffffffffffffff1681526020016005820154815250509050919050565b6060600060015467ffffffffffffffff81111561039e5761039d6111a1565b5b6040519080825280602002602001820160405280156103d757816020015b6103c4610cdc565b8152602001906001900390816103bc5790505b50905060005b6001548110156105d9576000806001836103f79190611415565b81526020019081526020016000206040518060c00160405290816000820154815260200160018201805461042a906113b5565b80601f0160208091040260200160405190810160405280929190818152602001828054610456906113b5565b80156104a35780601f10610478576101008083540402835291602001916104a3565b820191906000526020600020905b81548152906001019060200180831161048657829003601f168201915b505050505081526020016002820180546104bc906113b5565b80601f01602080910402602001604051908101604052809291908181526020018280546104e8906113b5565b80156105355780601f1061050a57610100808354040283529160200191610535565b820191906000526020600020905b81548152906001019060200180831161051857829003601f168201915b50505050508152602001600382015481526020016004820160009054906101000a900473ffffffffffffffffffffffffffffffffffffffff1673ffffffffffffffffffffffffffffffffffffffff1673ffffffffffffffffffffffffffffffffffffffff1681526020016005820154815250508282815181106105bb576105ba611449565b5b602002602001018190525080806105d190611478565b9150506103dd565b508091505090565b60015481565b6000602052806000526040600020600091509050806000015490806001018054610610906113b5565b80601f016020809104026020016040519081016040528092919081815260200182805461063c906113b5565b80156106895780601f1061065e57610100808354040283529160200191610689565b820191906000526020600020905b81548152906001019060200180831161066c57829003601f168201915b50505050509080600201805461069e906113b5565b80601f01602080910402602001604051908101604052809291908181526020018280546106ca906113b5565b80156107175780601f106106ec57610100808354040283529160200191610717565b820191906000526020600020905b8154815290600101906020018083116106fa57829003601f168201915b5050505050908060030154908060040160009054906101000a900473ffffffffffffffffffffffffffffffffffffffff16908060050154905086565b600260149054906101000a900460ff16156107a3576040517f08c379a000000000000000000000000000000000000000000000000000000000815260040161079a9061150c565b60405180910390fd5b6001600260146101000a81548160ff02191690831515021790555060008060008381526020019081526020016000209050600081600001541180156107ee5750600154816000015411155b61082d576040517f08c379a000000000000000000000000000000000000000000000000000000000815260040161082490611578565b60405180910390fd5b8060030154341015610874576040517f08c379a000000000000000000000000000000000000000000000000000000000815260040161086b906115e4565b60405180910390fd5b60008160050154116108bb576040517f08c379a00000000000000000000000000000000000000000000000000000000081526004016108b290611650565b60405180910390fd5b8060050160008154809291906108d090611670565b9190505550600081600501540361092557338160040160006101000a81548173ffffffffffffffffffffffffffffffffffffffff021916908373ffffffffffffffffffffffffffffffffffffffff1602179055505b8060030154341115610988573373ffffffffffffffffffffffffffffffffffffffff166108fc82600301543461095b9190611699565b9081150290604051600060405180830381858888f19350505050158015610986573d6000803e3d6000fd5b505b600260009054906101000a900473ffffffffffffffffffffffffffffffffffffffff1673ffffffffffffffffffffffffffffffffffffffff166108fc82600301549081150290604051600060405180830381858888f193505050501580156109f4573d6000803e3d6000fd5b507f78a0660bbda86d17037943644187f6f1f73f2f20a3240bf4cf4a56c2a96bcf8482338360050154604051610a2c939291906116cd565b60405180910390a1506000600260146101000a81548160ff02191690831515021790555050565b600260009054906101000a900473ffffffffffffffffffffffffffffffffffffffff1673ffffffffffffffffffffffffffffffffffffffff163373ffffffffffffffffffffffffffffffffffffffff1614610ae3576040517f08c379a0000000000000000000000000000000000000000000000000000000008152600401610ada90611776565b60405180910390fd5b60008211610b26576040517f08c379a0000000000000000000000000000000000000000000000000000000008152600401610b1d906117e2565b60405180910390fd5b60008111610b69576040517f08c379a0000000000000000000000000000000000000000000000000000000008152600401610b609061184e565b60405180910390fd5b60016000815480929190610b7c90611478565b91905055506040518060c001604052806001548152602001858152602001848152602001838152602001600073ffffffffffffffffffffffffffffffffffffffff168152602001828152506000806001548152602001908152602001600020600082015181600001556020820151816001019081610bfa9190611a1a565b506040820151816002019081610c109190611a1a565b506060820151816003015560808201518160040160006101000a81548173ffffffffffffffffffffffffffffffffffffffff021916908373ffffffffffffffffffffffffffffffffffffffff16021790555060a082015181600501559050507fb154f373fdc6b090d37b3b5400a2401c04f228519118fc5df9fa421bce8cffa460015485848487604051610ca8959493929190611aec565b60405180910390a150505050565b600260009054906101000a900473ffffffffffffffffffffffffffffffffffffffff1681565b6040518060c0016040528060008152602001606081526020016060815260200160008152602001600073ffffffffffffffffffffffffffffffffffffffff168152602001600081525090565b6000604051905090565b600080fd5b600080fd5b6000819050919050565b610d4f81610d3c565b8114610d5a57600080fd5b50565b600081359050610d6c81610d46565b92915050565b600060208284031215610d8857610d87610d32565b5b6000610d9684828501610d5d565b91505092915050565b610da881610d3c565b82525050565b600081519050919050565b600082825260208201905092915050565b60005b83811015610de8578082015181840152602081019050610dcd565b60008484015250505050565b6000601f19601f8301169050919050565b6000610e1082610dae565b610e1a8185610db9565b9350610e2a818560208601610dca565b610e3381610df4565b840191505092915050565b600073ffffffffffffffffffffffffffffffffffffffff82169050919050565b6000610e6982610e3e565b9050919050565b610e7981610e5e565b82525050565b600060c083016000830151610e976000860182610d9f565b5060208301518482036020860152610eaf8282610e05565b91505060408301518482036040860152610ec98282610e05565b9150506060830151610ede6060860182610d9f565b506080830151610ef16080860182610e70565b5060a0830151610f0460a0860182610d9f565b508091505092915050565b60006020820190508181036000830152610f298184610e7f565b905092915050565b600081519050919050565b600082825260208201905092915050565b6000819050602082019050919050565b600060c083016000830151610f756000860182610d9f565b5060208301518482036020860152610f8d8282610e05565b91505060408301518482036040860152610fa78282610e05565b9150506060830151610fbc6060860182610d9f565b506080830151610fcf6080860182610e70565b5060a0830151610fe260a0860182610d9f565b508091505092915050565b6000610ff98383610f5d565b905092915050565b6000602082019050919050565b600061101982610f31565b6110238185610f3c565b93508360208202850161103585610f4d565b8060005b8581101561107157848403895281516110528582610fed565b945061105d83611001565b925060208a01995050600181019050611039565b50829750879550505050505092915050565b6000602082019050818103600083015261109d818461100e565b905092915050565b6110ae81610d3c565b82525050565b60006020820190506110c960008301846110a5565b92915050565b600082825260208201905092915050565b60006110eb82610dae565b6110f581856110cf565b9350611105818560208601610dca565b61110e81610df4565b840191505092915050565b61112281610e5e565b82525050565b600060c08201905061113d60008301896110a5565b818103602083015261114f81886110e0565b9050818103604083015261116381876110e0565b905061117260608301866110a5565b61117f6080830185611119565b61118c60a08301846110a5565b979650505050505050565b600080fd5b600080fd5b7f4e487b7100000000000000000000000000000000000000000000000000000000600052604160045260246000fd5b6111d982610df4565b810181811067ffffffffffffffff821117156111f8576111f76111a1565b5b80604052505050565b600061120b610d28565b905061121782826111d0565b919050565b600067ffffffffffffffff821115611237576112366111a1565b5b61124082610df4565b9050602081019050919050565b82818337600083830152505050565b600061126f61126a8461121c565b611201565b90508281526020810184848401111561128b5761128a61119c565b5b61129684828561124d565b509392505050565b600082601f8301126112b3576112b2611197565b5b81356112c384826020860161125c565b91505092915050565b600080600080608085870312156112e6576112e5610d32565b5b600085013567ffffffffffffffff81111561130457611303610d37565b5b6113108782880161129e565b945050602085013567ffffffffffffffff81111561133157611330610d37565b5b61133d8782880161129e565b935050604061134e87828801610d5d565b925050606061135f87828801610d5d565b91505092959194509250565b60006020820190506113806000830184611119565b92915050565b7f4e487b7100000000000000000000000000000000000000000000000000000000600052602260045260246000fd5b600060028204905060018216806113cd57607f821691505b6020821081036113e0576113df611386565b5b50919050565b7f4e487b7100000000000000000000000000000000000000000000000000000000600052601160045260246000fd5b600061142082610d3c565b915061142b83610d3c565b9250828201905080821115611443576114426113e6565b5b92915050565b7f4e487b7100000000000000000000000000000000000000000000000000000000600052603260045260246000fd5b600061148382610d3c565b91507fffffffffffffffffffffffffffffffffffffffffffffffffffffffffffffffff82036114b5576114b46113e6565b5b600182019050919050565b7f5265656e7472616e637920646574656374656400000000000000000000000000600082015250565b60006114f66013836110cf565b9150611501826114c0565b602082019050919050565b60006020820190508181036000830152611525816114e9565b9050919050565b7f4974656d20646f6573206e6f7420657869737400000000000000000000000000600082015250565b60006115626013836110cf565b915061156d8261152c565b602082019050919050565b6000602082019050818103600083015261159181611555565b9050919050565b7f496e636f727265637420616d6f756e742073656e740000000000000000000000600082015250565b60006115ce6015836110cf565b91506115d982611598565b602082019050919050565b600060208201905081810360008301526115fd816115c1565b9050919050565b7f4974656d206f7574206f662073746f636b000000000000000000000000000000600082015250565b600061163a6011836110cf565b915061164582611604565b602082019050919050565b600060208201905081810360008301526116698161162d565b9050919050565b600061167b82610d3c565b91506000820361168e5761168d6113e6565b5b600182039050919050565b60006116a482610d3c565b91506116af83610d3c565b92508282039050818111156116c7576116c66113e6565b5b92915050565b60006060820190506116e260008301866110a5565b6116ef6020830185611119565b6116fc60408301846110a5565b949350505050565b7f4f6e6c792061646d696e2063616e20706572666f726d2074686973206163746960008201527f6f6e000000000000000000000000000000000000000000000000000000000000602082015250565b60006117606022836110cf565b915061176b82611704565b604082019050919050565b6000602082019050818103600083015261178f81611753565b9050919050565b7f436f7374206d7573742062652067726561746572207468616e20300000000000600082015250565b60006117cc601b836110cf565b91506117d782611796565b602082019050919050565b600060208201905081810360008301526117fb816117bf565b9050919050565b7f5175616e74697479206d7573742062652067726561746572207468616e203000600082015250565b6000611838601f836110cf565b915061184382611802565b602082019050919050565b600060208201905081810360008301526118678161182b565b9050919050565b60008190508160005260206000209050919050565b60006020601f8301049050919050565b600082821b905092915050565b6000600883026118d07fffffffffffffffffffffffffffffffffffffffffffffffffffffffffffffffff82611893565b6118da8683611893565b95508019841693508086168417925050509392505050565b6000819050919050565b600061191761191261190d84610d3c565b6118f2565b610d3c565b9050919050565b6000819050919050565b611931836118fc565b61194561193d8261191e565b8484546118a0565b825550505050565b600090565b61195a61194d565b611965818484611928565b505050565b5b818110156119895761197e600082611952565b60018101905061196b565b5050565b601f8211156119ce5761199f8161186e565b6119a884611883565b810160208510156119b7578190505b6119cb6119c385611883565b83018261196a565b50505b505050565b600082821c905092915050565b60006119f1600019846008026119d3565b1980831691505092915050565b6000611a0a83836119e0565b9150826002028217905092915050565b611a2382610dae565b67ffffffffffffffff811115611a3c57611a3b6111a1565b5b611a4682546113b5565b611a5182828561198d565b600060209050601f831160018114611a845760008415611a72578287015190505b611a7c85826119fe565b865550611ae4565b601f198416611a928661186e565b60005b82811015611aba57848901518255600182019150602085019450602081019050611a95565b86831015611ad75784890151611ad3601f8916826119e0565b8355505b6001600288020188555050505b505050505050565b600060a082019050611b0160008301886110a5565b8181036020830152611b1381876110e0565b9050611b2260408301866110a5565b611b2f60608301856110a5565b8181036080830152611b4181846110e0565b9050969550505050505056fea2646970667358221220ed71cce19003fa0d4ab838f01f7be0fb3c008abfe186fdbf3c2485b82ae4dea764736f6c63430008140033",
  "linkReferences": {},
  "deployedLinkReferences": {}
}