{
    "_format": "hh-sol-artifact-1",
    "contractName": "Dappzon",
    "sourceName": "contracts/Dappzon.sol",
    "abi": [
        {
            "anonymous": false,
            "inputs": [
                {
                    "indexed": false,
                    "internalType": "uint256",
                    "name": "id",
                    "type": "uint256"
                },
                {
                    "indexed": false,
                    "internalType": "string",
                    "name": "name",
                    "type": "string"
                },
                {
                    "indexed": false,
                    "internalType": "uint256",
                    "name": "cost",
                    "type": "uint256"
                },
                {
                    "indexed": false,
                    "internalType": "uint256",
                    "name": "quantity",
                    "type": "uint256"
                }
            ],
            "name": "ItemAdded",
            "type": "event"
        },
        {
            "anonymous": false,
            "inputs": [
                {
                    "indexed": false,
                    "internalType": "uint256",
                    "name": "id",
                    "type": "uint256"
                },
                {
                    "indexed": false,
                    "internalType": "address",
                    "name": "buyer",
                    "type": "address"
                },
                {
                    "indexed": false,
                    "internalType": "uint256",
                    "name": "quantityRemaining",
                    "type": "uint256"
                }
            ],
            "name": "ItemPurchased",
            "type": "event"
        },
        {
            "inputs": [
                {
                    "internalType": "string",
                    "name": "_name",
                    "type": "string"
                },
                {
                    "internalType": "string",
                    "name": "_imageUrl",
                    "type": "string"
                },
                {
                    "internalType": "uint256",
                    "name": "_cost",
                    "type": "uint256"
                },
                {
                    "internalType": "uint256",
                    "name": "_quantity",
                    "type": "uint256"
                }
            ],
            "name": "addItem",
            "outputs": [],
            "stateMutability": "nonpayable",
            "type": "function"
        },
        {
            "inputs": [
                {
                    "internalType": "uint256",
                    "name": "_id",
                    "type": "uint256"
                }
            ],
            "name": "getItem",
            "outputs": [
                {
                    "components": [
                        {
                            "internalType": "uint256",
                            "name": "id",
                            "type": "uint256"
                        },
                        {
                            "internalType": "string",
                            "name": "name",
                            "type": "string"
                        },
                        {
                            "internalType": "string",
                            "name": "imageUrl",
                            "type": "string"
                        },
                        {
                            "internalType": "uint256",
                            "name": "cost",
                            "type": "uint256"
                        },
                        {
                            "internalType": "address",
                            "name": "owner",
                            "type": "address"
                        },
                        {
                            "internalType": "uint256",
                            "name": "quantity",
                            "type": "uint256"
                        }
                    ],
                    "internalType": "struct Dappzon.Item",
                    "name": "",
                    "type": "tuple"
                }
            ],
            "stateMutability": "view",
            "type": "function"
        },
        {
            "inputs": [],
            "name": "itemCount",
            "outputs": [
                {
                    "internalType": "uint256",
                    "name": "",
                    "type": "uint256"
                }
            ],
            "stateMutability": "view",
            "type": "function"
        },
        {
            "inputs": [
                {
                    "internalType": "uint256",
                    "name": "",
                    "type": "uint256"
                }
            ],
            "name": "items",
            "outputs": [
                {
                    "internalType": "uint256",
                    "name": "id",
                    "type": "uint256"
                },
                {
                    "internalType": "string",
                    "name": "name",
                    "type": "string"
                },
                {
                    "internalType": "string",
                    "name": "imageUrl",
                    "type": "string"
                },
                {
                    "internalType": "uint256",
                    "name": "cost",
                    "type": "uint256"
                },
                {
                    "internalType": "address",
                    "name": "owner",
                    "type": "address"
                },
                {
                    "internalType": "uint256",
                    "name": "quantity",
                    "type": "uint256"
                }
            ],
            "stateMutability": "view",
            "type": "function"
        },
        {
            "inputs": [
                {
                    "internalType": "uint256",
                    "name": "_id",
                    "type": "uint256"
                }
            ],
            "name": "purchaseItem",
            "outputs": [],
            "stateMutability": "payable",
            "type": "function"
        }
    ],
    "bytecode": "0x608060405234801561001057600080fd5b506112fd806100206000396000f3fe60806040526004361061004a5760003560e01c80633129e7731461004f5780636bfb0d011461008c578063bfb231d2146100b7578063d38ea5bf146100f9578063dc8cbd2c14610115575b600080fd5b34801561005b57600080fd5b5061007660048036038101906100719190610891565b61013e565b6040516100839190610a2e565b60405180910390f35b34801561009857600080fd5b506100a1610302565b6040516100ae9190610a5f565b60405180910390f35b3480156100c357600080fd5b506100de60048036038101906100d99190610891565b610308565b6040516100f096959493929190610ad3565b60405180910390f35b610113600480360381019061010e9190610891565b610474565b005b34801561012157600080fd5b5061013c60048036038101906101379190610c77565b6106b0565b005b6101466107fb565b6000808381526020019081526020016000206040518060c00160405290816000820154815260200160018201805461017d90610d45565b80601f01602080910402602001604051908101604052809291908181526020018280546101a990610d45565b80156101f65780601f106101cb576101008083540402835291602001916101f6565b820191906000526020600020905b8154815290600101906020018083116101d957829003601f168201915b5050505050815260200160028201805461020f90610d45565b80601f016020809104026020016040519081016040528092919081815260200182805461023b90610d45565b80156102885780601f1061025d57610100808354040283529160200191610288565b820191906000526020600020905b81548152906001019060200180831161026b57829003601f168201915b50505050508152602001600382015481526020016004820160009054906101000a900473ffffffffffffffffffffffffffffffffffffffff1673ffffffffffffffffffffffffffffffffffffffff1673ffffffffffffffffffffffffffffffffffffffff1681526020016005820154815250509050919050565b60015481565b600060205280600052604060002060009150905080600001549080600101805461033190610d45565b80601f016020809104026020016040519081016040528092919081815260200182805461035d90610d45565b80156103aa5780601f1061037f576101008083540402835291602001916103aa565b820191906000526020600020905b81548152906001019060200180831161038d57829003601f168201915b5050505050908060020180546103bf90610d45565b80601f01602080910402602001604051908101604052809291908181526020018280546103eb90610d45565b80156104385780601f1061040d57610100808354040283529160200191610438565b820191906000526020600020905b81548152906001019060200180831161041b57829003601f168201915b5050505050908060030154908060040160009054906101000a900473ffffffffffffffffffffffffffffffffffffffff16908060050154905086565b60008060008381526020019081526020016000209050600081600001541180156104a45750600154816000015411155b6104e3576040517f08c379a00000000000000000000000000000000000000000000000000000000081526004016104da90610dc2565b60405180910390fd5b80600301543414610529576040517f08c379a000000000000000000000000000000000000000000000000000000000815260040161052090610e2e565b60405180910390fd5b600073ffffffffffffffffffffffffffffffffffffffff168160040160009054906101000a900473ffffffffffffffffffffffffffffffffffffffff1673ffffffffffffffffffffffffffffffffffffffff16146105bc576040517f08c379a00000000000000000000000000000000000000000000000000000000081526004016105b390610e9a565b60405180910390fd5b6000816005015411610603576040517f08c379a00000000000000000000000000000000000000000000000000000000081526004016105fa90610f06565b60405180910390fd5b80600501600081548092919061061890610f55565b9190505550600081600501540361066d57338160040160006101000a81548173ffffffffffffffffffffffffffffffffffffffff021916908373ffffffffffffffffffffffffffffffffffffffff1602179055505b7f78a0660bbda86d17037943644187f6f1f73f2f20a3240bf4cf4a56c2a96bcf84823383600501546040516106a493929190610f7e565b60405180910390a15050565b600160008154809291906106c390610fb5565b91905055506040518060c001604052806001548152602001858152602001848152602001838152602001600073ffffffffffffffffffffffffffffffffffffffff16815260200182815250600080600154815260200190815260200160002060008201518160000155602082015181600101908161074191906111a9565b50604082015181600201908161075791906111a9565b506060820151816003015560808201518160040160006101000a81548173ffffffffffffffffffffffffffffffffffffffff021916908373ffffffffffffffffffffffffffffffffffffffff16021790555060a082015181600501559050507f665e452eb624a7f9bf54abd5d404d4f4da7360a1e40698893fe2cc447a51af9c6001548584846040516107ed949392919061127b565b60405180910390a150505050565b6040518060c0016040528060008152602001606081526020016060815260200160008152602001600073ffffffffffffffffffffffffffffffffffffffff168152602001600081525090565b6000604051905090565b600080fd5b600080fd5b6000819050919050565b61086e8161085b565b811461087957600080fd5b50565b60008135905061088b81610865565b92915050565b6000602082840312156108a7576108a6610851565b5b60006108b58482850161087c565b91505092915050565b6108c78161085b565b82525050565b600081519050919050565b600082825260208201905092915050565b60005b838110156109075780820151818401526020810190506108ec565b60008484015250505050565b6000601f19601f8301169050919050565b600061092f826108cd565b61093981856108d8565b93506109498185602086016108e9565b61095281610913565b840191505092915050565b600073ffffffffffffffffffffffffffffffffffffffff82169050919050565b60006109888261095d565b9050919050565b6109988161097d565b82525050565b600060c0830160008301516109b660008601826108be565b50602083015184820360208601526109ce8282610924565b915050604083015184820360408601526109e88282610924565b91505060608301516109fd60608601826108be565b506080830151610a10608086018261098f565b5060a0830151610a2360a08601826108be565b508091505092915050565b60006020820190508181036000830152610a48818461099e565b905092915050565b610a598161085b565b82525050565b6000602082019050610a746000830184610a50565b92915050565b600082825260208201905092915050565b6000610a96826108cd565b610aa08185610a7a565b9350610ab08185602086016108e9565b610ab981610913565b840191505092915050565b610acd8161097d565b82525050565b600060c082019050610ae86000830189610a50565b8181036020830152610afa8188610a8b565b90508181036040830152610b0e8187610a8b565b9050610b1d6060830186610a50565b610b2a6080830185610ac4565b610b3760a0830184610a50565b979650505050505050565b600080fd5b600080fd5b7f4e487b7100000000000000000000000000000000000000000000000000000000600052604160045260246000fd5b610b8482610913565b810181811067ffffffffffffffff82111715610ba357610ba2610b4c565b5b80604052505050565b6000610bb6610847565b9050610bc28282610b7b565b919050565b600067ffffffffffffffff821115610be257610be1610b4c565b5b610beb82610913565b9050602081019050919050565b82818337600083830152505050565b6000610c1a610c1584610bc7565b610bac565b905082815260208101848484011115610c3657610c35610b47565b5b610c41848285610bf8565b509392505050565b600082601f830112610c5e57610c5d610b42565b5b8135610c6e848260208601610c07565b91505092915050565b60008060008060808587031215610c9157610c90610851565b5b600085013567ffffffffffffffff811115610caf57610cae610856565b5b610cbb87828801610c49565b945050602085013567ffffffffffffffff811115610cdc57610cdb610856565b5b610ce887828801610c49565b9350506040610cf98782880161087c565b9250506060610d0a8782880161087c565b91505092959194509250565b7f4e487b7100000000000000000000000000000000000000000000000000000000600052602260045260246000fd5b60006002820490506001821680610d5d57607f821691505b602082108103610d7057610d6f610d16565b5b50919050565b7f4974656d20646f6573206e6f7420657869737400000000000000000000000000600082015250565b6000610dac601383610a7a565b9150610db782610d76565b602082019050919050565b60006020820190508181036000830152610ddb81610d9f565b9050919050565b7f496e636f727265637420616d6f756e742073656e740000000000000000000000600082015250565b6000610e18601583610a7a565b9150610e2382610de2565b602082019050919050565b60006020820190508181036000830152610e4781610e0b565b9050919050565b7f4974656d20616c726561647920736f6c64000000000000000000000000000000600082015250565b6000610e84601183610a7a565b9150610e8f82610e4e565b602082019050919050565b60006020820190508181036000830152610eb381610e77565b9050919050565b7f4974656d206f7574206f662073746f636b000000000000000000000000000000600082015250565b6000610ef0601183610a7a565b9150610efb82610eba565b602082019050919050565b60006020820190508181036000830152610f1f81610ee3565b9050919050565b7f4e487b7100000000000000000000000000000000000000000000000000000000600052601160045260246000fd5b6000610f608261085b565b915060008203610f7357610f72610f26565b5b600182039050919050565b6000606082019050610f936000830186610a50565b610fa06020830185610ac4565b610fad6040830184610a50565b949350505050565b6000610fc08261085b565b91507fffffffffffffffffffffffffffffffffffffffffffffffffffffffffffffffff8203610ff257610ff1610f26565b5b600182019050919050565b60008190508160005260206000209050919050565b60006020601f8301049050919050565b600082821b905092915050565b60006008830261105f7fffffffffffffffffffffffffffffffffffffffffffffffffffffffffffffffff82611022565b6110698683611022565b95508019841693508086168417925050509392505050565b6000819050919050565b60006110a66110a161109c8461085b565b611081565b61085b565b9050919050565b6000819050919050565b6110c08361108b565b6110d46110cc826110ad565b84845461102f565b825550505050565b600090565b6110e96110dc565b6110f48184846110b7565b505050565b5b818110156111185761110d6000826110e1565b6001810190506110fa565b5050565b601f82111561115d5761112e81610ffd565b61113784611012565b81016020851015611146578190505b61115a61115285611012565b8301826110f9565b50505b505050565b600082821c905092915050565b600061118060001984600802611162565b1980831691505092915050565b6000611199838361116f565b9150826002028217905092915050565b6111b2826108cd565b67ffffffffffffffff8111156111cb576111ca610b4c565b5b6111d58254610d45565b6111e082828561111c565b600060209050601f8311600181146112135760008415611201578287015190505b61120b858261118d565b865550611273565b601f19841661122186610ffd565b60005b8281101561124957848901518255600182019150602085019450602081019050611224565b868310156112665784890151611262601f89168261116f565b8355505b6001600288020188555050505b505050505050565b60006080820190506112906000830187610a50565b81810360208301526112a28186610a8b565b90506112b16040830185610a50565b6112be6060830184610a50565b9594505050505056fea2646970667358221220168b812f01fa8b4dfd6483f11541bc0b0a318376e39cc1aebd415d589ce9179464736f6c63430008140033",
    "linkReferences": {},
    "deployedLinkReferences": {}
}